:020000040800F2
:1000000000000320C9240008E50A0008E70A0008E8
:10001000E90A0008EB0A0008ED0A000800000000E9
:10002000000000000000000000000000EF0A0008CF
:10003000F10A000800000000F30A0008F50A0008B1
:100040001925000819250008192500081925000898
:100050001925000819250008192500081925000888
:100060001925000819250008192500081925000878
:100070001925000819250008192500081925000868
:100080001925000819250008192500081925000858
:100090001925000819250008192500081925000848
:1000A0001925000819250008192500081925000838
:1000B0001925000819250008192500081925000828
:1000C0001925000819250008192500081925000818
:1000D0001925000819250008192500081925000808
:1000E00019250008192500081925000819250008F8
:1000F00019250008192500081925000819250008E8
:1001000019250008192500081925000819250008D7
:1001100019250008192500081925000819250008C7
:1001200019250008192500081925000819250008B7
:1001300019250008192500081925000819250008A7
:100140001925000819250008192500081925000897
:100150001925000819250008192500081925000887
:100160001925000819250008192500081925000877
:1001700019250008192500081925000800000000AD
:100180001925000819250008192500081925000857
:100190001925000819250008192500081925000847
:0C01A00019250008192500081925000881
:1001B00010B5054C237833B9044B13B10448AFF3A1
:1001C00000800123237010BD70000020000000009B
:1001D000E835000808B5034B1BB103490348AFF3EA
:1001E000008008BD0000000074000020E835000811
:1001F00001F0FF01102A2BDB10F0070F08D010F8D8
:10020000013B013A8B422DD010F0070F42B3F6D1DB
:10021000F0B441EA012141EA014122F007047FF0F4
:1002200000070023F0E80256083C85EA010586EA4B
:10023000010685FA47F5A3FA87F586FA47F6A5FA87
:1002400087F68EB9EED1F0BC01F0FF0102F0070293
:1002500032B110F8013B013A83EA010313B1F8D13E
:100260000020704701387047002D06BF354603381F
:10027000073815F0010F07D1013015F4807F02BF58
:10028000013015F4C03F0130F0BC0138704700BFA9
:1002900053B94AB9002908BF00281CBF4FF0FF31ED
:1002A0004FF0FF3000F074B9ADF1080C6DE904CEE9
:1002B00000F006F8DDF804E0DDE9022304B0704741
:1002C0002DE9F047089D04468E46002B4DD18A4209
:1002D000944669D9B2FA82F252B101FA02F3C2F13C
:1002E000200120FA01F10CFA02FC41EA030E9440CD
:1002F0004FEA1C48210CBEFBF8F61FFA8CF708FBEE
:1003000016E341EA034306FB07F199420AD91CEBC5
:10031000030306F1FF3080F01F81994240F21C81F7
:10032000023E63445B1AA4B2B3FBF8F008FB10333F
:1003300044EA034400FB07F7A7420AD91CEB040474
:1003400000F1FF3380F00A81A74240F20781644444
:10035000023840EA0640E41B00261DB1D4400023C9
:10036000C5E900433146BDE8F0878B4209D9002D2D
:1003700000F0EF800026C5E9000130463146BDE8B7
:10038000F087B3FA83F6002E4AD18B4202D3824221
:1003900000F2F980841A61EB030301209E46002DD0
:1003A000E0D0C5E9004EDDE702B9FFDEB2FA82F225
:1003B000002A40F09280A1EB0C014FEA1C471FFA83
:1003C0008CFE0126200CB1FBF7F307FB131140EA6A
:1003D00001410EFB03F0884208D91CEB010103F137
:1003E000FF3802D2884200F2CB804346091AA4B2F9
:1003F000B1FBF7F007FB101144EA01440EFB00FECD
:10040000A64508D91CEB040400F1FF3102D2A64531
:1004100000F2BB800846A4EB0E0440EA03409CE7D0
:10042000C6F12007B34022FA07FC4CEA030C20FA7D
:1004300007F401FA06F31C43F9404FEA1C4900FA9D
:1004400006F3B1FBF9F8200C1FFA8CFE09FB18111A
:1004500040EA014108FB0EF0884202FA06F20BD98D
:100460001CEB010108F1FF3A80F08880884240F2DD
:100470008580A8F102086144091AA4B2B1FBF9F021
:1004800009FB101144EA014100FB0EFE8E4508D91C
:100490001CEB010100F1FF346CD28E456AD90238A1
:1004A000614440EA0840A0FB0294A1EB0E01A14286
:1004B000C846A64656D353D05DB1B3EB080261EBF4
:1004C0000E0101FA07F722FA06F3F1401F43C5E9CE
:1004D000007100263146BDE8F087C2F12003D84004
:1004E0000CFA02FC21FA03F3914001434FEA1C4746
:1004F0001FFA8CFEB3FBF7F007FB10360B0C43EA38
:10050000064300FB0EF69E4204FA02F408D91CEBE7
:10051000030300F1FF382FD29E422DD902386344E5
:100520009B1B89B2B3FBF7F607FB163341EA034185
:1005300006FB0EF38B4208D91CEB010106F1FF38D4
:1005400016D28B4214D9023E6144C91A46EA0046CB
:1005500038E72E46284605E70646E3E61846F8E65D
:100560004B45A9D2B9EB020864EB0C0E0138A3E7A6
:100570004646EAE7204694E74046D1E7D0467BE787
:10058000023B614432E7304609E76444023842E7FF
:10059000704700BF2DE9F04F8DB0002407940894F8
:1005A00009940A940B940194684B1A6B42F004026C
:1005B0001A631A6B02F004020192019A02941A6BF8
:1005C00042F080021A631A6B02F080020292029AD1
:1005D00003941A6B42F001021A631A6B02F00102D3
:1005E0000392039A04941A6B42F002021A631A6B84
:1005F00002F002020492049A05941A6B42F0080277
:100600001A631A6B02F008020592059A06941A6B97
:1006100042F040021A631B6B03F040030693069BF3
:10062000DFF8309122460921484601F0DDFCDFF871
:1006300028B1224644F68101584601F0D5FC444FCA
:1006400022464021384601F0CFFC4FF40053079377
:100650004FF488130893099407A9484601F0C6FB94
:10066000092307934FF0010ACDF820A009940A94BA
:1006700007A9484601F0BAFB3223079302260896E1
:10068000099403250A954FF00B08CDF82C8007A993
:10069000484601F0ABFB86230793089609940A9518
:1006A000CDF82C80A9F5006907A9484601F09EFB0A
:1006B00044F681030793CDF820A009940A9407A972
:1006C000584601F093FB4FF40053079308960994A2
:1006D0000A95CDF82C8007A9584601F087FB4023E6
:1006E0000793CDF820A009940A9407A9384601F091
:1006F0007DFB802307930894099407A9384601F0ED
:1007000075FB4FF4E8530793089609940A950A235A
:100710000B9307A9484601F069FB4FF40073079358
:100720000894099407A9484601F060FB4FF4205350
:100730000793089609940A95CDF82C8007A93846A6
:1007400001F054FB0DB0BDE8F08F00BF003802404F
:1007500000180240000802400004024010B5144690
:100760004FF6FF7392B2024801F003FE204610BD1F
:10077000EC00002010B50C4C01224FF40061204623
:1007800001F032FC00220121204601F02DFC002264
:100790004FF48041204601F027FC002280212046B2
:1007A00001F022FC10BD00BF0004024010B50C4C4B
:1007B00000224FF40061204601F016FC0122114690
:1007C000204601F011FC00224FF48041204601F048
:1007D0000BFC00228021204601F006FC10BD00BF6A
:1007E0000004024010B50C4C00224FF4006120467A
:1007F00001F0FAFB00220121204601F0F5FB002266
:100800004FF48041204601F0EFFB01228021204679
:1008100001F0EAFB10BD00BF0004024010B50C4C13
:1008200000224FF40061204601F0DEFB002201218E
:10083000204601F0D9FB01224FF48041204601F00F
:10084000D3FB00228021204601F0CEFB10BD00BF6B
:100850000004024072B6FEE708B51148114B036070
:10086000114B436000238360C3604FF480420261F8
:1008700043618361C361036200F02AFC50B9002127
:10088000074800F033FF38B90021054800F050FF59
:1008900020B908BDFFF7DEFFFFF7DCFFFFF7DAFF47
:1008A0009800002000540040A086010008B50A48C6
:1008B0000A4B03604FF4E133436000238360C3605D
:1008C00003610C2242618361C36101F023FD00B921
:1008D00008BDFFF7BFFF00BF300100200048004007
:1008E00008B50A480A4B03604FF4E1334360002324
:1008F0008360C36003610C2242618361C36101F0C4
:1009000009FD00B908BDFFF7A5FF00BFEC000020FE
:100910000044004000B595B03022002108A801F045
:1009200021FE0023039304930593069307930193F9
:10093000204A116C41F080511164126C02F0805217
:100940000192019A02931C4B1A6842F440421A60C9
:100950001B6803F440430293029B012308934FF466
:10096000A023099302230E934FF480020F920422D6
:100970001092A822119212930723139308A800F053
:10098000F9FE98B90F2303930223049300230593E0
:100990004FF4A05306934FF480530793052103A807
:1009A00001F04EF920B915B05DF804FBFFF752FFD6
:1009B000FFF750FF003802400070004008B501F01A
:1009C0009DFBFFF7A7FFFFF7E5FDFFF745FFFFF7EB
:1009D0006DFFFFF785FF364E52233380354C0022E2
:1009E0000121204601F000FB052001F0B3FB0122AC
:1009F0001146204601F0F8FA052001F0ABFB2E4C21
:100A0000204601F022FD2D4D2860A37862782178E0
:100A10002B4801F0AFFD2B49308801F01FFD286005
:100A200028B9284B1A884EF6AA339A4207D026488E
:100A300001F026FE214B1968244801F09BFD244853
:100A400001F01EFE0EE0FFF7B1FE1EE0FFF7CAFE4A
:100A500023E0204B1B68952B01DDFFF78BFE642004
:100A600001F078FB01F070FB1B4D28601B4C2168E6
:100A7000411A1B4801F07EFD2B682360154B1A6854
:100A800001321A601B68312BDDDD124B1B68312BE4
:100A900003DD104B1B68632BD8DD0E4B1B68632BEB
:100AA000D7DD0C4B1B68952BD3DCFFF7B7FED0E7E7
:100AB0009400002000040240800100207C010020FE
:100AC000003600087801002030360008483600085B
:100AD0005C3600088C00002090000020740100208B
:100AE0006C360008FEE7FEE7FEE7FEE7FEE770472C
:100AF0007047704708B501F01BFB08BD82B00021AC
:100B000000910B4B5A6C42F480425A645A6C02F4C6
:100B100080420092009A01911A6C42F080521A644D
:100B20001B6C03F080530193019B02B0704700BF20
:100B30000038024030B589B0002303930493059335
:100B4000069307930268144B9A4201D009B030BD56
:100B500000250195114C236B43F002032363236BA3
:100B600003F002030193019B4FF44073039312239C
:100B70000493032306930423079303A9084801F071
:100B800035F90295236C43F400132364236C03F4BA
:100B900000130293029BD9E7005400400038024042
:100BA00000040240F0B58BB0002305930693079331
:100BB000089309930368314A934204D0304A934220
:100BC00038D00BB0F0BD002400942E4B1A6C42F4C8
:100BD00000321A641A6C02F400320092009A0194F6
:100BE0001A6B42F001021A631A6B02F001020192C1
:100BF000019A02941A6B42F008021A631B6B03F00D
:100C000008030293029B08230593022706970326F5
:100C100008960725099505A91B4801F0E7F8202348
:100C20000593069707940896099505A9174801F0BA
:100C3000DDF8C6E700210391124B1A6C42F48022C2
:100C40001A641A6C02F480220392039A04911A6BBC
:100C500042F008021A631B6B03F008030493049B21
:100C60004FF440730593022306930323089307234D
:100C7000099305A9054801F0B9F8A2E7004400402E
:100C8000004800400038024000000240000C0240D2
:100C900003685A6912F4806F01D1002070476FF425
:100CA00080625A6100230363202280F83D2080F88F
:100CB0003E30026C42F00402026480F83C300120B5
:100CC00070472DE9F04107460D4690461E4624E048
:100CD00001F03AFA069BC01AB04200D8EEB90023E0
:100CE0003B63202287F83D2087F83E303A6C42F083
:100CF00020023A6487F83C3001201EE03B689C6982
:100D000025EA040C1FFA8CFCBCFA8CFC4FEA5C1C34
:100D1000E04511D1B6F1FF3FDAD1C5F30743012B0E
:100D2000ECD13B685B6925EA030C1FFA8CFCBCFA2A
:100D30008CFC4FEA5C1CEBE70020BDE8F0812DE95C
:100D4000F04105460E46174698463DE01A6842F4C3
:100D500000721A602B686FF480625A6100232B6363
:100D6000202285F83D2085F83E302A6C42F00402AE
:100D70002A6485F83C30012034E001F0E5F9A0EB6D
:100D80000800B84200D8FFB900232B63202285F861
:100D90003D2085F83E302A6C42F020022A6485F816
:100DA0003C3001201EE02B689C6926EA0404A4B2B2
:100DB000003C18BF0124A4B12B685A6912F4806F5B
:100DC000C4D1B7F1FF3FD8D1C6F30743012BEAD115
:100DD0002B685C6926EA0404A4B2003C18BF012415
:100DE000E9E70020BDE8F081F0B583B004460D4688
:100DF00016461F46C36A082B0DD0012B0BD013F5E6
:100E0000803F08D0036B122B0AD10268136843F4A9
:100E10008073136004E02268136843F480731360E6
:100E20000097334600224FF001112046FFF749FF9B
:100E300080B92369B3F5804F16D1236805F0FE050C
:100E40001D613B46324613492046FFF778FFF8B94B
:100E500003B0F0BD23681B6813F4807F02D04FF409
:100E6000007323640320F3E7EB11226803F0060309
:100E700043F0F00313613B46324607492046FFF733
:100E80005EFF18B92368EDB21D61DAE70120DFE7E4
:100E90000120DDE702000100080001002DE9F0411A
:100EA00084B004460D4616461F46C26A01680B68A8
:100EB00043F480630B60082A0DD0012A0BD012F591
:100EC000803F08D0036B112B0AD10268136843F4EA
:100ED0008073136004E02268136843F48073136026
:100EE0000097334600224FF001112046FFF7E9FE3C
:100EF00098B92369B3F5804F19D1236845F00105EE
:100F0000EDB21D613B4632462A492046FFF717FFE6
:100F100000284CD104B0BDE8F08123681B6813F4AD
:100F2000807F02D04FF4007323640320F2E74FEA7E
:100F3000E51808F00608236848F0F0021A613B46FD
:100F400032461D492046FFF7FAFE08B10120E1E7CD
:100F50002368EDB21D613B46324616492046FFF735
:100F6000EEFE08B10120D5E70022039223685969FB
:100F70000391996903910399196841F4807119608B
:100F8000009733464FF001112046FFF79AFE20B933
:100F9000226848F0F1031361B4E723681B6813F477
:100FA000807F02D04FF4007323640320B2E7012056
:100FB000B0E700BF020001000800010070B5044660
:100FC0000D46164623685B6913F0800F1CD120463E
:100FD000FFF75EFED0B9B5F1FF3FF3D001F0B4F8F2
:100FE000801BA84201D8002DECD1002323632022CE
:100FF00084F83D2084F83E30226C42F020022264C6
:1010000084F83C30012000E0002070BD0120FCE7A6
:1010100070B504460D46164623685B6913F0040F4D
:101020001CD12046FFF734FED0B9B5F1FF3FF3D015
:1010300001F08AF8801BA84201D8002DECD10023D2
:101040002363202284F83D2084F83E30226C42F055
:101050002002226484F83C30012000E0002070BDB2
:101060000120FCE770B505460C4616462B68596909
:1010700011F0400F29D1596911F0100F15D101F06D
:1010800063F8801BA04201D8002CEFD100232B6312
:10109000202285F83D2085F83E302A6C42F020025F
:1010A0002A6485F83C30012070BD6FF010025A614F
:1010B00000232B63202285F83D2085F83E302A6CE2
:1010C0002A6485F83C300120EEE70020ECE70000C0
:1010D000002800F0CC8070B5044690F83D30002B1D
:1010E00077D0242384F83D302268136823F001036D
:1010F00013602268136843F4004313602268136886
:1011000023F40043136000F051FE62685A4B9A4288
:1011100064D85A4B98428CBF00230123002B40F027
:10112000A8805749A1FB00318B0C25686A6822F022
:101130003F0242EA91426A6021680A6A22F03F0255
:1011400066684D4DAE424FD8013313430B622168A0
:10115000CA6922F44F4222F0FF026668464B9E4263
:101160004CD8431E7600B3FBF6F3013340F6FC7017
:10117000034278D0C3F30B031343CB6121680B68A0
:1011800023F0C003E269206A024313430B60216825
:101190008B6823F4034323F0FF032269E0680243D2
:1011A00013438B602168CB6823F0FF036269A06959
:1011B00002431343CB602268136843F001031360BA
:1011C00000202064202384F83D30206384F83E0012
:1011D00070BD80F83C30FFF7ADFC82E7294B9842A8
:1011E0008CBF0023012399E74FF4967505FB03F3A9
:1011F000254DA5FB03539B090133A6E7A368BBB9A3
:10120000451E06EB460CB5FBFCF50135C5F30B0599
:10121000B5FA85F56D0945BBC3B9013806EB460340
:10122000B0FBF3F30133C3F30B0343F40043A3E731
:10123000451E06EB860C0CEB8C0CB5FBFCF5013562
:10124000C5F30B05B5FA85F56D09E4E7013806EB42
:10125000860303EB8303B0FBF3F30133C3F30B0308
:1012600043F4404388E7042386E7012384E7012011
:1012700070470120ACE700BFA08601007F841E00FC
:1012800083DE1B43FF083D00D34D62102DE9F04380
:1012900085B004460F46914698460C9E00F054FFD8
:1012A000054694F83D00C0B2202804D002273846F5
:1012B00005B0BDE8F0830095192301224F4920466F
:1012C000FFF7FFFC002840F0928094F83C30012B9F
:1012D00000F08F80012384F83C3023681A6812F0F4
:1012E000010F03D11A6842F001021A6022681368E4
:1012F00023F400631360212384F83D30102384F825
:101300003E3000232364C4F82490A4F82A80638D1F
:1013100023853B4BE3622B46324639462046FFF796
:1013200063FD0746002866D10023039323685A69AA
:1013300003929B690393039B11E0236C042B01D060
:101340000127B4E72268136843F400731360F7E7DA
:101350002A4631462046FFF75BFE00282ED1238D1A
:10136000002B36D02A4631462046FFF727FE0028BC
:10137000E3D1626A236812781A61606A431C63626F
:10138000618D89B2013989B26185238D013B9BB2A0
:1013900023852268516911F0040FD9D0002BD7D0D2
:1013A00043781361636A01336362638D9BB2013BCF
:1013B0009BB26385238D013B2385C9E7236C042BF6
:1013C00001D0012773E72268136843F400731360A8
:1013D000F7E72268136843F400731360202384F84E
:1013E0003D30002384F83E3084F83C305FE702272C
:1013F0005DE702275BE7012759E700BF0200100005
:101400000000FFFF2DE9F04387B004460F469146E8
:1014100098460E9E00F098FE054694F83D00C0B236
:10142000202804D00227384607B0BDE8F083009595
:101430001923012289492046FFF743FC002840F088
:10144000458194F83C30012B00F04281012384F85F
:101450003C3023681A6812F0010F03D11A6842F079
:1014600001021A602268136823F4006313602223C8
:1014700084F83D30102384F83E3000232364C4F800
:101480002490A4F82A80638D2385754BE3622B4654
:10149000324639462046FFF701FD0746002840F056
:1014A0001981238D5BB9029323685A6902929A6964
:1014B0000292029A1A6842F400721A607AE0012BD2
:1014C0000FD0022B1FD02268136843F4806313608F
:1014D0000023059323685A6905929B690593059B30
:1014E00068E02268136823F4806313600023039389
:1014F00023685A6903929A690392039A1A6842F41C
:1015000000721A6056E02268136823F48063136047
:101510002268136843F40063136000230493236874
:101520005A6904929B690493049B43E02A4631461E
:101530002046FFF797FD002840F0CE8023681A6907
:10154000636A1A70636A01336362238D013B2385EA
:10155000638D9BB2013B9BB263852BE000953346C4
:10156000002240492046FFF7ACFB002840F0B6803F
:101570002268136843F40073136023681A69636A6E
:101580001A70626A531C6362238D013B2385638D4D
:101590009BB2013B9BB2638523681B695370636AEE
:1015A00001336362238D013B2385638D9BB2013B35
:1015B0009BB26385218D00297FD0032954D801294E
:1015C000B4D00229CAD000953346002225492046CE
:1015D000FFF777FB002840F083802268136823F42C
:1015E0008063136023681A69636A1A70636A01333F
:1015F0006362238D013B2385618D89B2013989B2F4
:10160000618500953346002216492046FFF759FBB5
:10161000002867D12268136843F4007313602368BD
:101620001A69636A1A70626A531C6362238D013BF4
:101630002385638D9BB2013B9BB2638523681B6945
:101640005370636A01336362238D013B2385638D8D
:101650009BB2013B9BB26385ACE700BF0200100068
:101660000000FFFF040001002A4631462046FFF734
:10167000F9FC002838D123681A69636A1A70626A13
:10168000531C6362238D013B2385638D9BB2013B19
:101690009BB263852368596911F0040F8AD01B69D6
:1016A0005370636A01336362238D013B2385638D2D
:1016B0009BB2013B9BB263857CE7202384F83D30DD
:1016C000002384F83E3084F83C30ACE60227AAE6DA
:1016D0000227A8E60127A6E60127A4E60127A2E63D
:1016E0000127A0E601279EE601279CE690F83D3001
:1016F000DBB2202B01D002207047242380F83D303C
:101700000268136823F0010313600268536A23F030
:10171000100353620268536A1943516202681368E6
:1017200043F001031360202380F83D300020704710
:1017300090F83D30DBB2202B01D0022070472423EB
:1017400080F83D300268136823F0010313600268DB
:10175000536A9BB223F00F03194389B251620268A6
:10176000136843F001031360202380F83D3000200C
:1017700070470000002800F0E08170B582B0044698
:10178000036813F0010F3BD09F4B9B6803F00C03E1
:10179000042B2CD09C4B9B6803F00C03082B21D00E
:1017A0006368B3F5803F4FD0B3F5A02F52D0964B6E
:1017B0001A6822F480321A601A6822F480221A60B1
:1017C0006368002B50D000F0BFFC05468E4B1B68B1
:1017D00013F4003F14D100F0B7FC401B6428F5D986
:1017E0000320B1E1884B5B6813F4800FD8D0864B9F
:1017F0001B6813F4003F03D06368002B00F09F8147
:10180000236813F0020F54D07F4B9B6813F00C0F2A
:101810003ED07D4B9B6803F00C03082B33D0E3686C
:10182000002B68D0794B01221A6000F08DFC054630
:10183000754B1B6813F0020F54D100F085FC401B60
:101840000228F5D903207FE16F4A136843F48033FF
:101850001360B5E76C4B1A6842F480221A601A686C
:1018600042F480321A60ABE700F06EFC0546664B2E
:101870001B6813F4003FC3D000F066FC401B6428D3
:10188000F5D9032060E1604B5B6813F4800FC6D18B
:101890005D4B1B6813F0020F03D0E368012B40F08F
:1018A0005081594A136823F0F803216943EAC103C0
:1018B0001360236813F0080F42D063696BB3534B76
:1018C0000122C3F8802E00F03FFC05464E4B5B6FB3
:1018D00013F0020F34D100F037FC401B0228F5D979
:1018E000032031E1484A136823F0F803216943EAF1
:1018F000C1031360DDE7454B00221A6000F024FCB1
:101900000546414B1B6813F0020FD2D000F01CFCBF
:10191000401B0228F5D9032016E13C4B0022C3F8F6
:10192000802E00F011FC0546374B5B6F13F0020F61
:1019300006D000F009FC401B0228F5D9032003E182
:10194000236813F0040F77D02F4B1B6C13F0805FCC
:1019500033D1002301932C4B1A6C42F080521A644D
:101960001B6C03F080530193019B0125284B1B68DE
:1019700013F4807F23D0A368012B34D0052B38D0FB
:10198000214B1A6F22F001021A671A6F22F004022B
:101990001A67A368002B3DD000F0D6FB06461A4B11
:1019A0001B6F13F0020F46D100F0CEFB801B41F2FB
:1019B00088339842F3D90320C6E00025D6E7144ABD
:1019C000136843F48073136000F0BEFB0646104BAF
:1019D0001B6813F4807FCED100F0B6FB801B022879
:1019E000F5D90320B0E0084A136F43F001031367F1
:1019F000CFE7054B1A6F42F004021A671A6F42F0E4
:101A000001021A67C5E700BF0038024000004742E4
:101A10000070004000F098FB0646524B1B6F13F01D
:101A2000020F08D000F090FB801B41F288339842EF
:101A3000F3D9032088E0EDB9A369002B00F083807F
:101A4000484A926802F00C02082A51D0022B17D0A3
:101A5000454B00221A6600F077FB0446414B1B6899
:101A600013F0007F42D000F06FFB001B0228F5D975
:101A7000032069E03B4A136C23F080531364DBE7D7
:101A8000394B00221A6600F05FFB0546354B1B6898
:101A900013F0007F06D000F057FB401B0228F5D959
:101AA000032051E0E369226A1343626A43EA821326
:101AB000A26A5208013A43EA0243E26A43EA026335
:101AC000284A5360284B01221A6600F03DFB044669
:101AD000244B1B6813F0007F06D100F035FB001B80
:101AE0000228F5D903202FE000202DE000202BE074
:101AF000012B2BD01B4B5B6803F48001E269914200
:101B000026D103F03F02216A8A4223D1616A47F657
:101B1000C0721A40B2EB811F1ED103F44031A26A99
:101B20005208013AB1EB024F18D103F07063E26A38
:101B3000B3EB026F14D1002006E0012070470120B2
:101B400002E0012000E0002002B070BD0120FBE7B0
:101B50000120F9E70120F7E70120F5E70120F3E78D
:101B60000120F1E7003802400000474208B5314B40
:101B70009B6803F00C03042B57D0082B57D12D4B37
:101B80005A6802F03F025B6813F4800F2AD0294B99
:101B90005968C1F3881C4FEA4C11B1EB0C006EEB95
:101BA0000E0E4FEA8E1343EA90638101091A63EB2C
:101BB0000E03DB0043EA5173C90011EB0C0C43F137
:101BC0000003590200234FEA4C2041EADC51FEF7A2
:101BD0005FFB184B5B68C3F3014301335B00B0FB51
:101BE000F3F025E0134B5968C1F3881C4FEA4C1100
:101BF000B1EB0C006EEB0E0E4FEA8E1343EA9063CE
:101C00008101091A63EB0E03DB0043EA5173C9003B
:101C100011EB0C0C43F10003990200234FEA8C20D6
:101C200041EA9C51FEF734FBD3E7034800E0034848
:101C300008BD00BF0038024000127A000024F40002
:101C4000002800F09B8070B50D4604464F4B1B6882
:101C500003F00F038B4208D2CBB24C4A13701368C7
:101C600003F00F038B4240F08B80236813F0020FC8
:101C700017D013F0040F04D0454A936843F4E0539F
:101C80009360236813F0080F04D0414A936843F42B
:101C9000604393603E4A936823F0F003A1680B43CE
:101CA0009360236813F0010F32D06368012B21D0B9
:101CB0009A1E012A25D9364A126812F0020F61D005
:101CC00033498A6822F0030213438B6000F03CFA28
:101CD00006462F4B9B6803F00C036268B3EB820F40
:101CE00016D000F031FA801B41F288339842F0D9C7
:101CF000032042E0264A126812F4003FE0D101209E
:101D00003BE0234A126812F0007FD9D1012034E071
:101D10001E4B1B6803F00F03AB4207D9EAB21B4B03
:101D20001A701B6803F00F03AB422DD1236813F028
:101D3000040F06D0164A936823F4E053E1680B437E
:101D40009360236813F0080F07D0114A936823F4B7
:101D50006043216943EAC1039360FFF707FF0C4B1F
:101D60009B68C3F303130B4AD35CD8400A4B18603B
:101D70000A4B186800F09CF9002070BD01207047E4
:101D80000120FAE70120F8E70120F6E7003C0240D5
:101D900000380240883600080800002004000020B7
:101DA000014B1868704700BF0800002008B5FFF716
:101DB000F7FF044B9B68C3F38223034AD35CD840EC
:101DC00008BD00BF003802409836000808B5FFF78C
:101DD000E7FF044B9B68C3F34233034AD35CD8400C
:101DE00008BD00BF003802409836000800230F2BC2
:101DF00000F2F18070B582B061E085685E00032476
:101E0000B44025EA0405CC68B4402C43846045689E
:101E100025EA02054C68C4F300129A402A43426046
:101E20005BE0DC08083450F8246003F007029500FA
:101E30000F22AA4026EA020E0A69AA4042EA0E02CE
:101E400040F824205DE0092200E0002202FA0EF2B0
:101E50002A430234604D45F82420604A94686FEAB2
:101E60000C0224EA0C054E6816F4801F01D04CEADF
:101E700004055A4CA560E46802EA04054E6816F4AD
:101E8000001F01D04CEA0405544CE560646802EA86
:101E900004054E6816F4003F01D04CEA04054F4C8F
:101EA0006560246822404D6815F4803F01D04CEAFB
:101EB00004024A4C226001330F2B00F28A80012277
:101EC0009A400C6804EA020C32EA0404F3D14C682C
:101ED00004F00304013C012C8FD94A6802F003028C
:101EE000032A09D0C4685D000322AA4024EA020440
:101EF0008A68AA402243C2604A6802F00302022AAA
:101F00008FD004684FEA430E032202FA0EF224EA4D
:101F100002044A6802F0030202FA0EF2224302604F
:101F20004A6812F4403FC6D0002201922C4A546CF9
:101F300044F480445464526C02F480420192019A49
:101F40009C08A51C244A52F8255003F003024FEACE
:101F5000820E0F2202FA0EF225EA0205214A904271
:101F60003FF473AF02F58062904222D002F58062A6
:101F7000904220D002F5806290421ED002F580622D
:101F800090421CD002F5806290421AD002F5806225
:101F9000904218D002F58062904216D002F580621D
:101FA000904214D002F5806290423FF44CAF0A2276
:101FB0004CE701224AE7022248E7032246E70422CF
:101FC00044E7052242E7062240E707223EE70822CF
:101FD0003CE702B070BD704700380140003C014052
:101FE00000380240000002400AB1816170470904D4
:101FF00081617047074AD36823F4E0631B041B0C1C
:10200000000200F4E060034343F0BF6343F4003395
:10201000D360704700ED00E000B5194BDB68C3F3F7
:102020000223C3F1070CBCF1040F28BF4FF0040CCE
:1020300003F1040EBEF1060F18D9033B4FF0FF3E2B
:102040000EFA0CFC21EA0C0199400EFA03F322EA85
:102050000303194300280BDB0901C9B200F16040FA
:1020600000F5614080F800135DF804FB0023E5E70C
:1020700000F00F000901C9B2024B1954F4E700BF88
:1020800000ED00E014ED00E00138B0F1807F0BD2EC
:102090004FF0E0235861054AF02182F82310002018
:1020A000986107221A6170470120704700ED00E037
:1020B00010B504460E4B18784FF47A73B3FBF0F367
:1020C0000C4A1068B0FBF3F0FFF7DEFF68B90F2C85
:1020D00001D901200AE0002221464FF0FF30FFF72E
:1020E0009BFF054B1C60002000E0012010BD00BFDD
:1020F00000000020080000200400002008B50B4B61
:102100001A6842F400721A601A6842F480621A6017
:102110001A6842F480721A600320FFF76BFF0020F8
:10212000FFF7C6FFFEF7EAFC002008BD003C0240B6
:10213000034A1168034B1B780B441360704700BFC0
:102140008801002000000020014B1868704700BF84
:102150008801002038B50446FFF7F6FF0546B4F1C4
:10216000FF3F02D0044B1B781C44FFF7EDFF401BE0
:10217000A042FAD338BD00BF0000002038B50446A5
:102180000268136923F44053C1680B4313618368E9
:102190000269134342691343C2691A430168CB6859
:1021A00023F4164323F00C031343CB6002685369F6
:1021B00023F4407381690B4353610368314A9342AE
:1021C00006D002F58062934202D0FFF7EFFD01E0F6
:1021D000FFF7FCFDE369B3F5004F29D00021031898
:1021E00049411B1841F10001C90041EA5371DB006C
:1021F000181863684FEA83024FEA937341F10001B4
:10220000FEF746F8204DA5FB00325109642303FB7D
:1022100011031B013233A5FB03235B0903F0F0021A
:1022200002EB011203F00F03216813448B6038BDE9
:102230000023021843EB0301121841F10001C90009
:1022400041EA5271D200101841F1000162689218FF
:102250005B41FEF71DF80C4DA5FB003251096423CC
:1022600003FB1103DB003233A5FB03235B095A0098
:1022700002F4F87202EB011203F007032168134421
:102280008B60D4E7001001401F85EB512DE9F84326
:1022900005460F4616469946DDF820802C682468CE
:1022A00037EA04030CBF4FF0010C4FF0000CB445AB
:1022B0002DD1B8F1FF3FF1D0B8F1000F05D0FFF7F5
:1022C00043FFA0EB09004045E8D92A6802F10C035E
:1022D00053E8003F23F4D0730C3242E80031002968
:1022E000F3D12A6802F1140353E8003F23F00103FD
:1022F000143242E800310029F3D1202385F83D3023
:1023000085F83E30002385F83C30032000E00020B3
:10231000BDE8F88358B310B5044690F83D300BB3D0
:10232000242384F83D302268D36823F40053D3601B
:102330002046FFF723FF2268136923F490431361BB
:102340002268536923F02A0353612268D36843F457
:102350000053D36000202064202384F83D3084F8AB
:102360003E3010BD80F83C30FEF71CFCD8E7012061
:1023700070472DE9F04182B01E4690F83D30DBB247
:10238000202B54D104460D469046002953D0002AF4
:1023900053D090F83C30012B51D0012380F83C30D1
:1023A00000230364212380F83D30FFF7CDFE07466C
:1023B000A4F82480A4F82680A368B3F5805F05D034
:1023C0004FF00008002384F83C3012E0236913B179
:1023D0004FF00008F6E7A8460025F3E738F8023B7F
:1023E0002268C3F308035360E28C92B2013A92B2BE
:1023F000E284E38C9BB273B100963B4600228021BD
:102400002046FFF743FFE0B9002DE7D015F8012B78
:1024100023685A60E8E700963B46002240212046A8
:10242000FFF734FF78B9202384F83D3000E0022024
:1024300002B0BDE8F0810120FAE70120F8E70220B0
:10244000F6E70320F4E70320F2E7034602220270D6
:1024500001224270002098705860704708B50A4603
:1024600040F20F1100F00CF808BD0000034AD2F84A
:10247000883043F47003C2F88830704700ED00E004
:10248000F0B585B0044615460B0A8DF80C308DF872
:102490000D100C4E64270097022303AA0146304614
:1024A000FEF7F4FE0097022302AA21463046FEF70B
:1024B000A9FF9DF808209DF8093043EA02232B80EC
:1024C00005B0F0BD98000020DFF834D00D480E496B
:1024D0000E4A002302E0D458C4500433C4188C427E
:1024E000F9D30B4A0B4C002301E013600432A242E3
:1024F000FBD3FFF7BBFF00F011F8FEF75FFA704760
:102500000000032000000020700000204837000871
:1025100070000020A0010020FEE7000070B50D4D06
:102520000D4C641BA4100026A64209D10B4D0C4C87
:1025300001F05AF8641BA4100026A64205D170BD14
:1025400055F8043B98470136EEE755F8043B9847A9
:102550000136F2E7403700084037000840370008EE
:102560004437000802440346934200D1704703F801
:10257000011BF9E70FB40A4B13B51C6824B1A3691A
:1025800013B9204600F05EFA05AB049AA1680193E6
:10259000204600F067FC02B0BDE8104004B0704770
:1025A0000C00002070B50E46054618B183690BB9C2
:1025B00000F048FAAB69AC6813B9284600F042FA5B
:1025C0002C4B9C4220D16C68636EDB0705D4A38939
:1025D000980502D4A06D00F0D3FAA38919071DD580
:1025E0002369DBB1013EA36816F8011F013BA3601C
:1025F00039BB002B38DA22460A21284600F048F879
:10260000013011D00A2511E01B4B9C4201D1AC686E
:10261000DAE71A4B9C4208BFEC68D5E7214628460A
:1026200000F088F80028DDD04FF0FF35636EDA0740
:1026300005D4A3899B0502D4A06D00F0A2FA284618
:1026400070BD002B04DAA2699A4206DC0A2904D084
:1026500023685A1C22601970C5E72246284600F0FC
:1026600017F80130BFD1DFE723680A255A1C226022
:102670001D70DBE7C4360008E4360008A436000805
:10268000024B01461868FFF78DBF00BF0C00002009
:10269000F8B50E461446054618B183690BB900F02B
:1026A000D1F9214B9C422BD16C68A369A360A3890B
:1026B0001A072FD523696BB323692068C01A636991
:1026C000F6B28342374604DC2146284600F026F95C
:1026D00030BBA368013BA36023685A1C22601E70B4
:1026E00063690130834204D0A389DB0706D50A2E33
:1026F00004D12146284600F011F988B93846F8BDC2
:102700000A4B9C4201D1AC68CFE7094B9C4208BF01
:10271000EC68CAE72146284600F00CF80028CBD028
:102720004FF0FF37EAE700BFC4360008E436000880
:10273000A4360008324B70B51D6806460C4625B11C
:10274000AB6913B9284600F07DF92E4B9C420FD19E
:102750006C68A389B4F90C2019072CD4DD0611D4B8
:102760000923336042F04003A3814FF0FF303EE085
:10277000254B9C4201D1AC68EBE7244B9C4208BF3F
:10278000EC68E6E7580712D5616B41B104F14403E8
:10279000994202D0304600F05BFA00236363A389BC
:1027A00023F02403A3810023636023692360A389AA
:1027B00043F00803A38123694BB9A38903F4207371
:1027C000B3F5007F03D02146304600F001FAA0891E
:1027D000B4F90C2010F001030AD00023A360636950
:1027E0005B42A361236943B910F08000BAD170BD88
:1027F000810758BF6369A360F4E70020F7E700BFD3
:102800000C000020C4360008E4360008A436000896
:102810008A892DE9F041054610070C4658D44B68CB
:10282000002B05DC0B6C002B02DC0020BDE8F081E6
:10283000E66A002EF9D0002312F480522F682B6034
:1028400032D0606DA3895A0705D56368C01A636BDF
:102850000BB1236CC01A00230246E66A216A28469F
:10286000B047431CA38906D129681D292CD82A4AC0
:10287000CA40D60728D500226260D90422692260A6
:1028800004D5421C01D12B6803B96065616B2F60D0
:102890000029CAD004F14403994202D0284600F02E
:1028A000D7F900206063C1E7216A01232846B047B9
:1028B000411CC7D12B68002BC4D01D2B01D0162B77
:1028C00001D12F60B1E7A38943F04003A381ADE7B5
:1028D0000F69002FA9D093070E6808BF4B690F60DE
:1028E00018BF0023A6EB07088B60B8F1000F9CDD32
:1028F000216AA66A43463A462846B047002806DCC5
:10290000A38943F04003A3814FF0FF308EE70744D3
:10291000A8EB0008E9E700BF0100402038B50B69CB
:1029200005460C4613B90025284638BD18B1836901
:102930000BB900F087F8144B9C421BD16C68B4F9BA
:102940000C30002BEFD0626ED00704D4990502D46E
:10295000A06D00F015F928462146FFF759FF636E78
:10296000DA070546E0D4A3899B05DDD4A06D00F00D
:1029700008F9D9E7054B9C4201D1AC68DFE7044B6D
:102980009C4208BFEC68DAE7C4360008E436000869
:10299000A4360008002310B50446C0E90033C0E99E
:1029A0000433836081814366C281836119460822B2
:1029B0005C30FFF7D7FD054B6362054BA362054B07
:1029C000E362054B2462236310BD00BF0D34000891
:1029D0002F340008673400088B340008014900F0E8
:1029E000AFB800BF1D29000870B568224D1E5543C1
:1029F0000E4605F1740100F097F9044640B100213C
:102A0000C0E900160C30A06005F16802FFF7AAFDCE
:102A1000204670BD014800F0B3B800BF8D01002012
:102A2000014800F0AEB800BF8D010020014800F061
:102A3000A7B800BF8E010020014800F0A2B800BF77
:102A40008E01002010B50446FFF7F0FFA3691BB10B
:102A5000BDE81040FFF7F0BFC4E912332365134B04
:102A6000134A1B68A262A34204BF0123A36120464C
:102A700000F020F86060204600F01CF8A0602046BE
:102A800000F018F80022E06004216068FFF782FF80
:102A9000A06801220921FFF77DFFE06802221221D0
:102AA000FFF778FF0123A361D2E700BFA03600083B
:102AB000DD290008F8B50746FFF7ACFF1E4B1E687E
:102AC000B36913B93046FFF7BDFF4836D6E9013484
:102AD000013B03D533680BB33668F7E7B4F90C5004
:102AE000D5B9164BE36004F15800656600F047F86D
:102AF000FFF796FFC4E90155C4E904552560A561B7
:102B00000822294604F15C00FFF72CFDC4E90D55AD
:102B1000C4E912552046F8BD6834D9E70421384687
:102B2000FFF762FF044630600028D5D1FFF778FF39
:102B30000C233B60EEE700BFA03600080100FFFF5A
:102B40002DE9F8430646884600F148040027D4E9F9
:102B50000195B9F1010905D52468002CF7D1384653
:102B6000BDE8F883AB89012B07D9B5F90E300133E5
:102B700003D029463046C04707436835E9E7704728
:102B80007047704770B50E46B1F90E10002996B027
:102B900014461D4608DAB6F90C3000222A601A06DF
:102BA00010D44FF480630EE06A4600F095FC0028D4
:102BB000F1DB019A02F47042A2F500535A425A41E5
:102BC0002A60EEE740230020236016B070BD0000AD
:102BD0008B8973B59D0706460C4607D504F147035C
:102BE000236023610123636102B070BD01AB6A46BB
:102BF000FFF7C8FF00990546304600F095F848B940
:102C0000B4F90C309A05EFD423F0030343F0020328
:102C1000A381E3E70D4BB362A389206043F08003F7
:102C2000A381009B6361019B20615BB1B4F90E102D
:102C3000304600F063FC28B1A38923F0030343F07E
:102C40000103A381A0890543A581CDE7DD29000803
:102C500037B5002944D051F8043C0190002BA1F174
:102C60000404B8BFE41800F06BFC1E4A0198136816
:102C700033B96360146003B0BDE8304000F066BC57
:102C8000A34208D9256861198B4201BF19685B68A6
:102C900049192160EDE71A465B680BB1A342FAD9E6
:102CA00011685518A5420BD1246821445418A34239
:102CB0001160E0D11C685B68536021441160DAE761
:102CC00002D90C230360D6E7256861198B4204BF43
:102CD00019685B68636004BF491921605460CAE7E2
:102CE00003B030BD9001002070B50E4E0C46316827
:102CF000054611B900F07AFB30602146284600F005
:102D000075FB431C0AD0C41C24F00304A04207D066
:102D1000211A284600F06AFB013001D14FF0FF3440
:102D2000204670BD940100202DE9F041CD1C25F016
:102D3000030508350C2D38BF0C25002D074601DB97
:102D4000A94205D90C233B6000263046BDE8F0813E
:102D50002E4E00F0F5FB33681C4634BB294638463E
:102D6000FFF7C2FF431C04464DD134682646002EAF
:102D700040D123683146384604EB030800F036FBA7
:102D800080453AD1216803356D1A25F003050835D1
:102D90000C2D38BF0C2529463846FFF7A5FF01301A
:102DA0002BD023682B4423600EE02268521B1ED4D4
:102DB0000B2A16D96119A342256018BF59606368B0
:102DC00008BF316062514B60384604F10B0600F0D9
:102DD000BDFB26F00706231DF21AB6D09B1BA3509D
:102DE000B3E76268A3420CBF32605A60ECE7234647
:102DF0006468B2E734467668B9E70C233B6038462E
:102E000000F0A4FBA1E72560DEE700BF90010020F1
:102E10009368013B002B10B4936008DA9469A342D5
:102E200001DB0A2903D15DF8044BFFF731BC1368BD
:102E3000581C1060197008465DF8044B7047F8B5CF
:102E400006460F461446D518AC4201D1002007E0D3
:102E500014F8011B3A463046FFF7DAFF431CF3D162
:102E6000F8BD00002DE9F04F0D469DB01446984680
:102E7000064618B183690BB9FFF7E4FD894B9D4203
:102E80001BD175686B6ED90705D4AB899A0502D43E
:102E9000A86DFFF775FEAB891B0701D52B69EBB950
:102EA00029463046FFF746FCC0B16B6EDC070ED5F5
:102EB0004FF0FF301DB0BDE8F08F7B4B9D4201D13C
:102EC000B568DFE7794B9D4208BFF568DAE7AB8963
:102ED0009805EDD4A86DFFF754FEE9E700230993A8
:102EE00020238DF82930CDF80C803023DFF8C08105
:102EF0008DF82A304FF0010923469A4613F8012B2A
:102F00000AB1252AF9D1BAEB040B0BD05B46224655
:102F100029463046FFF793FF013000F0AA80099A56
:102F20005A4409929AF80030002B00F0A280002346
:102F30004FF0FF32CDE905230AF1010A049307930C
:102F40008DF853301A935446052214F8011B584843
:102F5000FDF74EF9049AD8B9D10644BF20238DF865
:102F60005330130744BF2B238DF853309AF80030A9
:102F70002A2B15D0079A544600204FF00A0C214600
:102F800011F8013B303B092B4ED9B0B1079214E048
:102F9000A0EB080309FA03F313430493A246D2E714
:102FA000039B191D1B680391002BBBBF5B4242F0C2
:102FB000020207930793B8BF049223782E2B0CD1FB
:102FC00063782A2B35D1039B1A1D1B680392002BB3
:102FD000B8BF4FF0FF3302340593DFF8E4A0217847
:102FE00003225046FDF704F940B14023A0EB0A004C
:102FF00003FA00F0049B03430134049314F8011B0B
:103000002C488DF828100622FDF7F2F800283FD052
:10301000294B1BBB039B073323F0070308330393A0
:10302000099B3B44099367E70CFB02320C460120E5
:10303000A5E700230134059319464FF00A0C2046FA
:1030400010F8012B303A092A03D9002BC5D005917D
:10305000C3E70CFB012104460123F0E703AB009317
:103060002A46164B04A93046AFF300800746781C69
:10307000D6D16B6ED90705D4AB899A0502D4A86D59
:10308000FFF77FFDAB895B063FF512AF099811E7AB
:1030900003AB00932A46094B04A9304600F080F8A0
:1030A000E4E700BFC4360008E4360008A436000890
:1030B000043700080E370008000000003F2E00080B
:1030C0000A3700082DE9F047164699468A680B69C9
:1030D000DDF820809342B8BF1346336091F8432057
:1030E00007460C460AB1013333602368990642BF94
:1030F000336802333360256815F0060506D104F104
:10310000190AE36832689B1AAB4226DC94F8432024
:10311000131E226818BF012392062BD404F1430228
:1031200049463846C04701301ED02368E5683268FA
:1031300003F00603042B08BFAD1AA36822690CBF75
:1031400025EAE57500259342C4BF9B1AED180026B9
:103150001A34B5421AD1002008E0012352464946EC
:103160003846C047013003D14FF0FF30BDE8F0874B
:103170000135C6E7E1185A1C302081F8430022448B
:1031800094F8451082F843100233C7E70123224622
:1031900049463846C0470130E6D00136D9E700003D
:1031A0002DE9FF470F7E0C9D782F914680460C46F7
:1031B0009A4601F1430207D8622F0AD8002F00F087
:1031C000D880582F00F0A38004F1420584F84270A3
:1031D0003AE0A7F16303152BF6D801A151F823F0CB
:1031E000393200084D320008C9310008C9310008E1
:1031F000C9310008C93100084D320008C931000842
:10320000C9310008C9310008C93100085933000824
:103210007D3200083B330008C9310008C93100087D
:103220007B330008C93100087D320008C93100082D
:10323000C9310008433300082B681A1D1B682A6037
:1032400004F1420584F842300123A3E02068296894
:10325000060601F104030AD50E682B60002E03DA7E
:103260002D23764284F843305E480A2319E00E6825
:103270002B6010F0400F18BF36B2EFE72B682068C4
:10328000191D2960010601D51E6802E04606FBD51E
:103290001E8854486F2F0CBF08230A23002184F88E
:1032A00043106568A560002DA2BF216821F00401CC
:1032B00021600EB9002D4DD01546B6FBF3F103FB8E
:1032C0001167C75D05F8017D3746BB420E46F4D94C
:1032D000082B0BD12368DE0708D523696168994262
:1032E000DEBF302305F8013C05F1FF35521B22619A
:1032F000CDF800A04B4603AA21464046FFF7E2FE68
:1033000001304CD14FF0FF3004B0BDE8F0873548B4
:1033100081F845702968236851F8046B29601D06FF
:1033200014D5DF0744BF43F0200323601EB9236890
:1033300023F0200323601023B0E7236843F0200329
:1033400023607823284884F84530E3E7590648BFCE
:10335000B6B2E6E71546BBE72B6826686169181D1B
:10336000286035061B6801D5196002E07006FBD5A0
:103370001980002323611546BAE72B681A1D2A60BD
:103380001D68626800212846FCF732FF08B1401B27
:10339000606063682361002384F84330A8E72369F1
:1033A0002A4649464046D0470130ABD023689B07A8
:1033B00013D4E068039B9842B8BF1846A4E70123E2
:1033C000324649464046D04701309BD00135E3683C
:1033D00003995B1AAB42F2DCEBE7002504F1190616
:1033E000F5E700BF153700082637000838B5064D49
:1033F0000023044608462B6000F0E8F8431C02D185
:103400002B6803B1236038BD9801002010B50C462D
:10341000B1F90E1000F0A0F80028ABBF636DA389CE
:103420001B1823F48053ACBF6365A38110BD2DE945
:10343000F0411F468B89DB0505460C46164605D52F
:10344000B1F90E100223002200F068F8A389B4F944
:103450000E1023F48053A38132463B462846BDE834
:10346000F04100F017B810B50C46B1F90E1000F09D
:1034700055F8431CA38915BF606523F4805343F4BA
:103480008053A38118BFA38110BDB1F90E1000F0C5
:1034900013B8000038B5074D04460846114600220F
:1034A0002A601A46FDF75AF9431C02D12B6803B172
:1034B000236038BD9801002038B5064D002304462E
:1034C00008462B6000F05AF8431C02D12B6803B168
:1034D000236038BD9801002038B5074D002304460D
:1034E000084611462B6000F051F8431C02D12B68AE
:1034F00003B1236038BD00BF9801002038B5064DE8
:103500000023044608462B6000F048F8431C02D113
:103510002B6803B1236038BD9801002038B5074DF2
:1035200004460846114600222A601A4600F03EF87A
:10353000431C02D12B6803B1236038BD98010020E1
:103540000148FFF71DBB00BF8C0100200148FFF7B9
:1035500018BB00BF8C01002038B5074D0446084653
:10356000114600222A601A4600F028F8431C02D1B6
:103570002B6803B1236038BD98010020024B58220C
:103580001A604FF0FF30704798010020024B58221C
:103590001A604FF0FF30704798010020024B58220C
:1035A0001A600020704700BF98010020024B58228B
:1035B0001A604FF0FF30704798010020024B5822EC
:1035C0001A604FF0FF30704798010020044A054907
:1035D0001368002B08BF0B4618441060184670474C
:1035E0009C010020A0010020F8B500BFF8BC08BC79
:1035F0009E467047F8B500BFF8BC08BC9E467047B1
:103600005374617274696E6720564C35334C344381
:1036100044206472697665722076657273696F6E94
:103620002025752E25752E2575200D0A0000000019
:10363000564C35334C344344206E6F7420646574AB
:103640006563746564200D0020746865207374617F
:1036500074757320697320256400000052616E67E1
:10366000696E6720737461727473000020746865FA
:103670002074696D65206469666620697320256C15
:1036800064206D730D0A00000000000000000000BF
:1036900001020304060708090000000001020304F8
:1036A00010000020000000000000000000000000EA
:1036B000000000000000000000000000000000000A
:1036C00000000000000000000000000000000000FA
:1036D00000000000000000000000000000000000EA
:1036E00000000000000000000000000000000000DA
:1036F00000000000000000000000000000000000CA
:1037000000000000232D302B2000686C4C00656603
:103710006745464700303132333435363738394122
:103720004243444546003031323334353637383938
:0837300061626364656600003C
:0837380088CBFF7F01000000B7
:04374000D5010008A7
:04374400B1010008C7
:1037480001000000100000000024F4001000002018
:1037580000000000C4360008E4360008A43600085B
:103768000000000000000000000000000000000051
:103778000000000000000000000000000000000041
:103788000000000000000000000000000000000031
:103798000000000000000000000000000000000021
:1037A8000000000000000000000000000000000011
:04000005080024C902
:00000001FF
